{
  "_format": "hh-sol-artifact-1",
  "contractName": "InstaMintFactory",
  "sourceName": "contracts/InstaMintFactory.sol",
  "abi": [
    {
      "anonymous": false,
      "inputs": [
        {
          "indexed": false,
          "internalType": "uint8",
          "name": "version",
          "type": "uint8"
        }
      ],
      "name": "Initialized",
      "type": "event"
    },
    {
      "anonymous": false,
      "inputs": [
        {
          "indexed": true,
          "internalType": "address",
          "name": "newMintAddress",
          "type": "address"
        }
      ],
      "name": "NewMintCreated",
      "type": "event"
    },
    {
      "inputs": [
        {
          "internalType": "address",
          "name": "to",
          "type": "address"
        },
        {
          "internalType": "string",
          "name": "name",
          "type": "string"
        },
        {
          "internalType": "string",
          "name": "description",
          "type": "string"
        },
        {
          "internalType": "string",
          "name": "symbol",
          "type": "string"
        },
        {
          "internalType": "string",
          "name": "image",
          "type": "string"
        },
        {
          "internalType": "uint256",
          "name": "cost",
          "type": "uint256"
        },
        {
          "internalType": "uint256",
          "name": "quantity",
          "type": "uint256"
        }
      ],
      "name": "createNewMint",
      "outputs": [
        {
          "internalType": "address",
          "name": "",
          "type": "address"
        }
      ],
      "stateMutability": "payable",
      "type": "function"
    },
    {
      "inputs": [],
      "name": "initialize",
      "outputs": [],
      "stateMutability": "nonpayable",
      "type": "function"
    },
    {
      "inputs": [],
      "name": "instamintImpl",
      "outputs": [
        {
          "internalType": "address",
          "name": "",
          "type": "address"
        }
      ],
      "stateMutability": "view",
      "type": "function"
    },
    {
      "inputs": [],
      "name": "upgrade",
      "outputs": [],
      "stateMutability": "nonpayable",
      "type": "function"
    }
  ],
  "bytecode": "0x608060405234801561000f575f80fd5b50612d788061001d5f395ff3fe60806040526004361061003e575f3560e01c806359c41530146100425780638129fc1c14610071578063aa6c58d614610087578063d55ec697146100ab575b5f80fd5b61005561005036600461047a565b6100bf565b6040516001600160a01b03909116815260200160405180910390f35b34801561007c575f80fd5b50610085610184565b005b348015610092575f80fd5b505f54610055906201000090046001600160a01b031681565b3480156100b6575f80fd5b506100856102d7565b5f805481906100dc906201000090046001600160a01b0316610324565b9050806001600160a01b0316635b5cfe0d348b8b8b8b8b8b8b6040518963ffffffff1660e01b81526004016101179796959493929190610584565b5f604051808303818588803b15801561012e575f80fd5b505af1158015610140573d5f803e3d5ffd5b50506040516001600160a01b03851693507f9eda42993c3fad530c3a750c57c0502d8cc867fae24b5d75762d457ae4a35aa992505f9150a298975050505050505050565b5f54610100900460ff16158080156101a257505f54600160ff909116105b806101bb5750303b1580156101bb57505f5460ff166001145b6102235760405162461bcd60e51b815260206004820152602e60248201527f496e697469616c697a61626c653a20636f6e747261637420697320616c72656160448201526d191e481a5b9a5d1a585b1a5e995960921b60648201526084015b60405180910390fd5b5f805460ff191660011790558015610244575f805461ff0019166101001790555b604051610250906103bb565b604051809103905ff080158015610269573d5f803e3d5ffd5b505f60026101000a8154816001600160a01b0302191690836001600160a01b0316021790555080156102d4575f805461ff0019169055604051600181527f7f26b83ff96e1f2b6a682f133852f6798a09c465da95921460cefb38474024989060200160405180910390a15b50565b6040516102e3906103bb565b604051809103905ff0801580156102fc573d5f803e3d5ffd5b505f60026101000a8154816001600160a01b0302191690836001600160a01b03160217905550565b5f763d602d80600a3d3981f3363d3d373d3d3d363d730000008260601b60e81c175f526e5af43d82803e903d91602b57fd5bf38260781b17602052603760095ff090506001600160a01b0381166103b65760405162461bcd60e51b8152602060048201526016602482015275115490cc4c4d8dce8818dc99585d194819985a5b195960521b604482015260640161021a565b919050565b61274a806105f983390190565b80356001600160a01b03811681146103b6575f80fd5b634e487b7160e01b5f52604160045260245ffd5b5f82601f830112610401575f80fd5b81356001600160401b038082111561041b5761041b6103de565b604051601f8301601f19908116603f01168101908282118183101715610443576104436103de565b8160405283815286602085880101111561045b575f80fd5b836020870160208301375f602085830101528094505050505092915050565b5f805f805f805f60e0888a031215610490575f80fd5b610499886103c8565b965060208801356001600160401b03808211156104b4575f80fd5b6104c08b838c016103f2565b975060408a01359150808211156104d5575f80fd5b6104e18b838c016103f2565b965060608a01359150808211156104f6575f80fd5b6105028b838c016103f2565b955060808a0135915080821115610517575f80fd5b506105248a828b016103f2565b93505060a0880135915060c0880135905092959891949750929550565b5f81518084525f5b8181101561056557602081850181015186830182015201610549565b505f602082860101526020601f19601f83011685010191505092915050565b6001600160a01b038816815260e0602082018190525f906105a790830189610541565b82810360408401526105b98189610541565b905082810360608401526105cd8188610541565b905082810360808401526105e18187610541565b60a0840195909552505060c001529594505050505056fe608060405234801562000010575f80fd5b5060408051602080820183525f808352835191820190935282815290916200003983826200016a565b5060016200004882826200016a565b505050620000656200005f6200006b60201b60201c565b6200006f565b62000232565b3390565b600680546001600160a01b038381166201000081810262010000600160b01b031985161790945560405193909204169182907f8be0079c531659141344cd1fd0a4f28419497f9722a3daafe3b4186f6b6457e0905f90a35050565b634e487b7160e01b5f52604160045260245ffd5b600181811c90821680620000f357607f821691505b6020821081036200011257634e487b7160e01b5f52602260045260245ffd5b50919050565b601f82111562000165575f81815260208120601f850160051c81016020861015620001405750805b601f850160051c820191505b8181101562000161578281556001016200014c565b5050505b505050565b81516001600160401b03811115620001865762000186620000ca565b6200019e81620001978454620000de565b8462000118565b602080601f831160018114620001d4575f8415620001bc5750858301515b5f19600386901b1c1916600185901b17855562000161565b5f85815260208120601f198616915b828110156200020457888601518255948401946001909101908401620001e3565b50858210156200022257878501515f19600388901b60f8161c191681555b5050505050600190811b01905550565b61250a80620002405f395ff3fe60806040526004361061013b575f3560e01c806301ffc9a71461013f57806306fdde0314610173578063081812fc14610194578063095ea7b3146101e057806313faede61461020157806318160ddd1461022457806323b872dd1461023857806340c10f191461025757806342842e0e1461026a578063453c23101461028957806354a76f4a1461029e578063597e1fb5146102bd5780635b5cfe0d146102d65780636352211e146102e957806370a0823114610308578063715018a6146103275780638da5cb5b1461033b57806393e059c01461034f57806395d89b411461036e578063a22cb46514610382578063b11fa3ad146103a1578063b88d4fde146103b6578063c87b56dd146103d5578063d5abeb01146103f4578063e8a3d48514610409578063e985e9c51461041d578063f2fde38b14610456575b5f80fd5b34801561014a575f80fd5b5061015e61015936600461185c565b610475565b60405190151581526020015b60405180910390f35b34801561017e575f80fd5b506101876104c6565b60405161016a91906118c4565b34801561019f575f80fd5b506101c86101ae3660046118d6565b60046020525f90815260409020546001600160a01b031681565b6040516001600160a01b03909116815260200161016a565b3480156101eb575f80fd5b506101ff6101fa366004611903565b610551565b005b34801561020c575f80fd5b50610216600a5481565b60405190815260200161016a565b34801561022f575f80fd5b50600754610216565b348015610243575f80fd5b506101ff61025236600461192b565b610618565b6101ff610265366004611903565b610782565b348015610275575f80fd5b506101ff61028436600461192b565b61095a565b348015610294575f80fd5b5061021660095481565b3480156102a9575f80fd5b506101876102b83660046118d6565b610a2b565b3480156102c8575f80fd5b50600b5461015e9060ff1681565b6101ff6102e4366004611a20565b610ca4565b3480156102f4575f80fd5b506101c86103033660046118d6565b610ebb565b348015610313575f80fd5b50610216610322366004611ae7565b610f11565b348015610332575f80fd5b506101ff610f72565b348015610346575f80fd5b506101c8610f85565b34801561035a575f80fd5b506101ff610369366004611b0f565b610f9a565b348015610379575f80fd5b50610187610fda565b34801561038d575f80fd5b506101ff61039c366004611b4b565b610fe7565b3480156103ac575f80fd5b5061021660075481565b3480156103c1575f80fd5b506101ff6103d0366004611b7c565b611052565b3480156103e0575f80fd5b506101876103ef3660046118d6565b611114565b3480156103ff575f80fd5b5061021660085481565b348015610414575f80fd5b50610187611156565b348015610428575f80fd5b5061015e610437366004611c0e565b600560209081525f928352604080842090915290825290205460ff1681565b348015610461575f80fd5b506101ff610470366004611ae7565b611225565b5f6301ffc9a760e01b6001600160e01b0319831614806104a557506380ac58cd60e01b6001600160e01b03198316145b806104c05750635b5e139f60e01b6001600160e01b03198316145b92915050565b5f80546104d290611c36565b80601f01602080910402602001604051908101604052809291908181526020018280546104fe90611c36565b80156105495780601f1061052057610100808354040283529160200191610549565b820191905f5260205f20905b81548152906001019060200180831161052c57829003601f168201915b505050505081565b5f818152600260205260409020546001600160a01b03163381148061059857506001600160a01b0381165f90815260056020908152604080832033845290915290205460ff165b6105bd5760405162461bcd60e51b81526004016105b490611c6e565b60405180910390fd5b5f8281526004602052604080822080546001600160a01b0319166001600160a01b0387811691821790925591518593918516917f8c5be1e5ebec7d5bd14f71427d1e84f3dd0314c0f7b2291e5b200ac8c7c3b92591a4505050565b5f818152600260205260409020546001600160a01b0384811691161461066d5760405162461bcd60e51b815260206004820152600a60248201526957524f4e475f46524f4d60b01b60448201526064016105b4565b6001600160a01b0382166106935760405162461bcd60e51b81526004016105b490611c96565b336001600160a01b03841614806106cc57506001600160a01b0383165f90815260056020908152604080832033845290915290205460ff165b806106ec57505f818152600460205260409020546001600160a01b031633145b6107085760405162461bcd60e51b81526004016105b490611c6e565b6001600160a01b038084165f81815260036020908152604080832080545f19019055938616808352848320805460010190558583526002825284832080546001600160a01b03199081168317909155600490925284832080549092169091559251849392915f8051602061247783398151915291a4505050565b60085481306001600160a01b031663b11fa3ad6040518163ffffffff1660e01b8152600401602060405180830381865afa1580156107c2573d5f803e3d5ffd5b505050506040513d601f19601f820116820180604052508101906107e69190611cc1565b6107f09190611cec565b111561080f576040516309b741cf60e41b815260040160405180910390fd5b600b5460ff16156108335760405163a7e4d9bd60e01b815260040160405180910390fd5b60095461083f83610f11565b1061085d57604051632e04c6f560e11b815260040160405180910390fd5b5f81600a5461086c9190611cff565b9050348114610897576040516305e4640960e21b8152346004820152602481018290526044016105b4565b5f5b82816001600160401b031610156108dc5760078054905f6108b983611d16565b91905055506108ca8460075461129e565b806108d481611d2e565b915050610899565b505f6108e6610f85565b6001600160a01b0316346040515f6040518083038185875af1925050503d805f811461092d576040519150601f19603f3d011682016040523d82523d5f602084013e610932565b606091505b505090508061095457604051633fa2a53d60e21b815260040160405180910390fd5b50505050565b610965838383610618565b6001600160a01b0382163b1580610a0a5750604051630a85bd0160e11b8082523360048301526001600160a01b03858116602484015260448301849052608060648401525f608484015290919084169063150b7a029060a4016020604051808303815f875af11580156109da573d5f803e3d5ffd5b505050506040513d601f19601f820116820180604052508101906109fe9190611d5b565b6001600160e01b031916145b610a265760405162461bcd60e51b81526004016105b490611d76565b505050565b60605f610adf604051806040016040528060048152602001636e616d6560e01b815250306001600160a01b03166306fdde036040518163ffffffff1660e01b81526004015f60405180830381865afa158015610a89573d5f803e3d5ffd5b505050506040513d5f823e601f3d908101601f19168201604052610ab09190810190611da0565b610ab986611370565b604051602001610aca929190611e2c565b6040516020818303038152906040525f6113ff565b90505f81610b996040518060400160405280600b81526020016a3232b9b1b934b83a34b7b760a91b815250600c8054610b1790611c36565b80601f0160208091040260200160405190810160405280929190818152602001828054610b4390611c36565b8015610b8e5780601f10610b6557610100808354040283529160200191610b8e565b820191905f5260205f20905b815481529060010190602001808311610b7157829003601f168201915b50505050505f6113ff565b610bc8604051806040016040528060068152602001651cde5b589bdb60d21b81525060018054610b1790611c36565b610c7960405180604001604052806005815260200164696d61676560d81b815250600d8054610bf690611c36565b80601f0160208091040260200160405190810160405280929190818152602001828054610c2290611c36565b8015610c6d5780601f10610c4457610100808354040283529160200191610c6d565b820191905f5260205f20905b815481529060010190602001808311610c5057829003601f168201915b505050505060016113ff565b604051602001610c8c9493929190611e68565b60408051601f19818403018152919052949350505050565b600654610100900460ff1615808015610cc45750600654600160ff909116105b80610cde5750303b158015610cde575060065460ff166001145b610d415760405162461bcd60e51b815260206004820152602e60248201527f496e697469616c697a61626c653a20636f6e747261637420697320616c72656160448201526d191e481a5b9a5d1a585b1a5e995960921b60648201526084016105b4565b6006805460ff191660011790558015610d64576006805461ff0019166101001790555b600c610d708782611f2f565b50600d610d7d8582611f2f565b50600a8390555f610d8e8882611f2f565b506001610d9b8682611f2f565b50620f423f6009819055600855600b805460ff19169055610dbb8861145c565b6040516340c10f1960e01b81526001600160a01b03891660048201526024810183905230906340c10f199034906044015f604051808303818588803b158015610e02575f80fd5b505af1158015610e14573d5f803e3d5ffd5b50505050507f8edd7f36d5f01bd45e59cf55b0a670dcf701fc20f678970a8c243b2346d6acaf5f600c600d604051610e4e93929190612063565b60405180910390a16040515f805160206123d9833981519152905f90a18015610eb1576006805461ff0019169055604051600181527f7f26b83ff96e1f2b6a682f133852f6798a09c465da95921460cefb38474024989060200160405180910390a15b5050505050505050565b5f818152600260205260409020546001600160a01b031680610f0c5760405162461bcd60e51b815260206004820152600a6024820152691393d517d3525395115160b21b60448201526064016105b4565b919050565b5f6001600160a01b038216610f575760405162461bcd60e51b815260206004820152600c60248201526b5a45524f5f4144445245535360a01b60448201526064016105b4565b506001600160a01b03165f9081526003602052604090205490565b610f7a6114b7565b610f835f61145c565b565b6006546201000090046001600160a01b031690565b610fa26114b7565b60088490556009839055600a829055600b805460ff19168215151790556040515f805160206123d9833981519152905f90a150505050565b600180546104d290611c36565b335f8181526005602090815260408083206001600160a01b03871680855290835292819020805460ff191686151590811790915590519081529192917f17307eab39ab6107e8899845ad3d59bd9653f200f220920489ca2b5937696c31910160405180910390a35050565b61105d858585610618565b6001600160a01b0384163b15806110f15750604051630a85bd0160e11b808252906001600160a01b0386169063150b7a02906110a59033908a908990899089906004016120b6565b6020604051808303815f875af11580156110c1573d5f803e3d5ffd5b505050506040513d601f19601f820116820180604052508101906110e59190611d5b565b6001600160e01b031916145b61110d5760405162461bcd60e51b81526004016105b490611d76565b5050505050565b6060600754821180611124575081155b156111455760405163c927e5bf60e01b8152600481018390526024016105b4565b6104c061115183610a2b565b611516565b60605f61118d6040518060400160405280600b81526020016a3232b9b1b934b83a34b7b760a91b815250600c8054610b1790611c36565b6111bc604051806040016040528060068152602001651cde5b589bdb60d21b81525060018054610b1790611c36565b6111ea60405180604001604052806005815260200164696d61676560d81b815250600d8054610b1790611c36565b6111f2611547565b6040516020016112059493929190611e68565b604051602081830303815290604052905061121f81611516565b91505090565b61122d6114b7565b6001600160a01b0381166112925760405162461bcd60e51b815260206004820152602660248201527f4f776e61626c653a206e6577206f776e657220697320746865207a65726f206160448201526564647265737360d01b60648201526084016105b4565b61129b8161145c565b50565b6001600160a01b0382166112c45760405162461bcd60e51b81526004016105b490611c96565b5f818152600260205260409020546001600160a01b0316156113195760405162461bcd60e51b815260206004820152600e60248201526d1053149150511657d3525395115160921b60448201526064016105b4565b6001600160a01b0382165f81815260036020908152604080832080546001019055848352600290915280822080546001600160a01b0319168417905551839291905f80516020612477833981519152908290a45050565b60605f61137c83611576565b60010190505f816001600160401b0381111561139a5761139a611964565b6040519080825280601f01601f1916602001820160405280156113c4576020820181803683370190505b5090508181016020015b5f19016f181899199a1a9b1b9c1cb0b131b232b360811b600a86061a8153600a85049450846113ce57509392505050565b6060811561143057838360405160200161141a929190612108565b6040516020818303038152906040529050611455565b838360405160200161144392919061215b565b60405160208183030381529060405290505b9392505050565b600680546001600160a01b038381166201000081810262010000600160b01b031985161790945560405193909204169182907f8be0079c531659141344cd1fd0a4f28419497f9722a3daafe3b4186f6b6457e0905f90a35050565b336114c0610f85565b6001600160a01b031614610f835760405162461bcd60e51b815260206004820181905260248201527f4f776e61626c653a2063616c6c6572206973206e6f7420746865206f776e657260448201526064016105b4565b60606115218261164b565b60405160200161153191906121b5565b6040516020818303038152906040529050919050565b60605f611555600854611370565b90505f611560611799565b90505f8282604051602001610c8c9291906121f9565b5f8072184f03e93ff9f4daa797ed6e38ed64bf6a1f0160401b83106115b45772184f03e93ff9f4daa797ed6e38ed64bf6a1f0160401b830492506040015b6904ee2d6d415b85acef8160201b83106115de576904ee2d6d415b85acef8160201b830492506020015b662386f26fc1000083106115fc57662386f26fc10000830492506010015b6305f5e1008310611614576305f5e100830492506008015b612710831061162857612710830492506004015b6064831061163a576064830492506002015b600a83106104c05760010192915050565b606081515f0361166857505060408051602081019091525f815290565b5f6040518060600160405280604081526020016124376040913990505f6003845160026116959190611cec565b61169f9190612284565b6116aa906004611cff565b6001600160401b038111156116c1576116c1611964565b6040519080825280601f01601f1916602001820160405280156116eb576020820181803683370190505b509050600182016020820185865187015b80821015611757576003820191508151603f8160121c168501518453600184019350603f81600c1c168501518453600184019350603f8160061c168501518453600184019350603f81168501518453506001830192506116fc565b505060038651066001811461177357600281146117865761178e565b603d6001830353603d600283035361178e565b603d60018303535b509195945050505050565b60605f6117a7600954611370565b90505f6117b5600a54611370565b90505f6040518060400160405280600a8152602001693078343063313066313960b01b81525090505f6040518060600160405280603e8152602001612497603e913990505f6040518060600160405280603e81526020016123f9603e91399050848383838760405160200161182e9594939291906122a3565b6040516020818303038152906040529550505050505090565b6001600160e01b03198116811461129b575f80fd5b5f6020828403121561186c575f80fd5b813561145581611847565b5f5b83811015611891578181015183820152602001611879565b50505f910152565b5f81518084526118b0816020860160208601611877565b601f01601f19169290920160200192915050565b602081525f6114556020830184611899565b5f602082840312156118e6575f80fd5b5035919050565b80356001600160a01b0381168114610f0c575f80fd5b5f8060408385031215611914575f80fd5b61191d836118ed565b946020939093013593505050565b5f805f6060848603121561193d575f80fd5b611946846118ed565b9250611954602085016118ed565b9150604084013590509250925092565b634e487b7160e01b5f52604160045260245ffd5b604051601f8201601f191681016001600160401b03811182821017156119a0576119a0611964565b604052919050565b5f6001600160401b038211156119c0576119c0611964565b50601f01601f191660200190565b5f82601f8301126119dd575f80fd5b81356119f06119eb826119a8565b611978565b818152846020838601011115611a04575f80fd5b816020850160208301375f918101602001919091529392505050565b5f805f805f805f60e0888a031215611a36575f80fd5b611a3f886118ed565b965060208801356001600160401b0380821115611a5a575f80fd5b611a668b838c016119ce565b975060408a0135915080821115611a7b575f80fd5b611a878b838c016119ce565b965060608a0135915080821115611a9c575f80fd5b611aa88b838c016119ce565b955060808a0135915080821115611abd575f80fd5b50611aca8a828b016119ce565b93505060a0880135915060c0880135905092959891949750929550565b5f60208284031215611af7575f80fd5b611455826118ed565b80358015158114610f0c575f80fd5b5f805f8060808587031215611b22575f80fd5b843593506020850135925060408501359150611b4060608601611b00565b905092959194509250565b5f8060408385031215611b5c575f80fd5b611b65836118ed565b9150611b7360208401611b00565b90509250929050565b5f805f805f60808688031215611b90575f80fd5b611b99866118ed565b9450611ba7602087016118ed565b93506040860135925060608601356001600160401b0380821115611bc9575f80fd5b818801915088601f830112611bdc575f80fd5b813581811115611bea575f80fd5b896020828501011115611bfb575f80fd5b9699959850939650602001949392505050565b5f8060408385031215611c1f575f80fd5b611c28836118ed565b9150611b73602084016118ed565b600181811c90821680611c4a57607f821691505b602082108103611c6857634e487b7160e01b5f52602260045260245ffd5b50919050565b6020808252600e908201526d1393d517d055551213d49256915160921b604082015260600190565b6020808252601190820152701253959053125117d49150d25412515395607a1b604082015260600190565b5f60208284031215611cd1575f80fd5b5051919050565b634e487b7160e01b5f52601160045260245ffd5b808201808211156104c0576104c0611cd8565b80820281158282048414176104c0576104c0611cd8565b5f60018201611d2757611d27611cd8565b5060010190565b5f6001600160401b038281166002600160401b03198101611d5157611d51611cd8565b6001019392505050565b5f60208284031215611d6b575f80fd5b815161145581611847565b60208082526010908201526f155394d0519157d49150d2541251539560821b604082015260600190565b5f60208284031215611db0575f80fd5b81516001600160401b03811115611dc5575f80fd5b8201601f81018413611dd5575f80fd5b8051611de36119eb826119a8565b818152856020838501011115611df7575f80fd5b611e08826020830160208601611877565b95945050505050565b5f8151611e22818560208601611877565b9290920192915050565b5f8351611e3d818460208801611877565b61202360f01b9083019081528351611e5c816002840160208801611877565b01600201949350505050565b607b60f81b81525f8551611e83816001850160208a01611877565b855190830190611e9a816001840160208a01611877565b8551910190611eb0816001840160208901611877565b8451910190611ec6816001840160208801611877565b607d60f81b600192909101918201526002019695505050505050565b601f821115610a26575f81815260208120601f850160051c81016020861015611f085750805b601f850160051c820191505b81811015611f2757828155600101611f14565b505050505050565b81516001600160401b03811115611f4857611f48611964565b611f5c81611f568454611c36565b84611ee2565b602080601f831160018114611f8f575f8415611f785750858301515b5f19600386901b1c1916600185901b178555611f27565b5f85815260208120601f198616915b82811015611fbd57888601518255948401946001909101908401611f9e565b5085821015611fda57878501515f19600388901b60f8161c191681555b5050505050600190811b01905550565b5f8154611ff681611c36565b808552602060018381168015612013576001811461202d57612058565b60ff1985168884015283151560051b880183019550612058565b865f52825f205f5b858110156120505781548a8201860152908301908401612035565b890184019650505b505050505092915050565b608081525f6120756080830186611fea565b82810360208401526120878186611fea565b9050828103604084015261209b8185611fea565b83810360609094019390935250505f81526020019392505050565b6001600160a01b038681168252851660208201526040810184905260806060820181905281018290525f828460a08401375f60a0848401015260a0601f19601f85011683010190509695505050505050565b5f601160f91b8083528451612124816001860160208901611877565b62111d1160e91b6001918501918201528451612147816004840160208901611877565b016004810191909152600501949350505050565b601160f91b815282515f90612177816001850160208801611877565b62111d1160e91b600191840191820152835161219a816004840160208801611877565b61088b60f21b60049290910191820152600601949350505050565b7f646174613a6170706c69636174696f6e2f6a736f6e3b6261736536342c00000081525f82516121ec81601d850160208701611877565b91909101601d0192915050565b6d226d696e74436f6e666967223a7b60901b81526b1136b0bc29bab838363c911d60a11b600e82015282515f9061223781601a850160208801611877565b600b60fa1b601a918401918201526811383430b9b2b9911d60b91b601b820152835161226a816024840160208801611877565b607d60f81b60249290910191820152602501949350505050565b5f8261229e57634e487b7160e01b5f52601260045260245ffd5b500490565b615b7b60f01b8152731136b0bc26b4b73a39a832b92bb0b63632ba111d60611b600282015285515f906122dd816016850160208b01611877565b600b60fa1b60169184019182015265227478223a7b60d01b6017820152691136b2ba3437b2111d1160b11b601d8201528651612320816027840160208b01611877565b61088b60f21b602792909101918201526922706172616d73223a5b60b01b60298201526123cc6123be6123b16123ab61239661238861237b61237561236860338a018f611e11565b600b60fa1b815260010190565b8c611e11565b605d60f81b815260010190565b611f4b60f21b815260020190565b6811383934b1b2911d1160b91b815260090190565b87611e11565b601160f91b815260010190565b617d5d60f01b815260020190565b9897505050505050505056fea703f5371c9a5519d27a0ab98ff81ca400a4adb7bf05d607347bfffc0efabe8f7b226e616d65223a20227175616e74697479222c202261626954797065223a202275696e74323536222c20226b696e64223a20225155414e54495459227d4142434445464748494a4b4c4d4e4f505152535455565758595a6162636465666768696a6b6c6d6e6f707172737475767778797a303132333435363738392b2fddf252ad1be2c89b69c2b068fc378daa952ba7f163c4a11628f55a4df523b3ef7b226e616d65223a2022726563697069656e74222c2261626954797065223a202261646472657373222c226b696e64223a2022524543495049454e54227da264697066735822122048dfc6cb9df35642f51252ed7e0c315f0b21dcf1a91f0befa560d621abb62e8e64736f6c63430008150033a26469706673582212200958c3bd533ce1eb2667c7638e35cf75ed5d0c1b3e0f89173a53094c2e35238964736f6c63430008150033",
  "linkReferences": {},
  "deployedLinkReferences": {}
}